S04A00005C5C4D61635C486F6D655C446F63756D656E74735C50726F6A6563745F31395C62696E5C50726F6A6563742E61627348435331325F53657269616C5F4D6F6E69746F722E61627326
S123C000CF110006C0DC68656C6C6F4D650049276D20726561647920746F20726563696597
S123C02076652061206E657720736F6E67206F7220636F6D6D616E6421004920686F706529
S123C04020796F75206C696B652074686520736F6E672069276D20706C6179696E67210010
S123C060506172616D657465722061667465722053206D7573742062652061206865786957
S123C080646563696D616C2063686172616374657200496E707574206D757374207374619F
S123C0A072742077697468204C2C20532C206F72204D00506172616D657465722061667419
S123C0C06572204C206D75737420626520612073696E676C6520646967697400C602877C2A
S123C0E0110816C6B616C6A8FC110804240316C0FDFC11088C0002260316C11D3DC7877C33
S123C10011007C1102CE111234CCC00616C3193ACC0A0D7C111A79111C10EF20FE1BF180BF
S123C120C7877C110610EFFC110627FBF6110AC14C2608F6110B16C5B3200AC1532609F697
S123C140110B16C42A06C2A2C14D18260151C601877C1104F6110BC13118260093C6CF6CFE
S123C160F040C6146CF042CE00CF6EF044C6B86CF0466EF048C69B6CF04AC6A46CF04C6E87
S123C180F04EC6146CF0506EF052C6B86CF0546EF056C68A6CF058C69B6CF05AC6286CF0E0
S123C1A024C60F6CF026C6196CF028C6506CF02A6CF02C6CF02E586CF030C6286CF032C6C9
S123C1C00F6CF034C6196CF036C6506CF0386CF03A6CF03C586CF03EC60E6CF07EC60116F6
S123C1E0C3261AF040341AF02634C60E8706C290C132182600ACC6C36C82C6146C84CE00D1
S123C200C36E866C886E8A6C8C6E8E6CF0106EF0126CF0146EF0166CF0186EF01AC6A46C01
S123C220F01CC6F66CF01EC6DB6CF0206EF022C62D6CF05CC6056CF05EC62D6CF060C60571
S123C2406CF062C65F6CF064C6056CF066C62D6CF068C6056CF06AC62D6CF06CC6056CF080
S123C2606EC65F6CF070C6056CF072C6326CF0746CF0766CF0786CF07A586CF07CC6116C0B
S123C28080FC110416C3261A82341AF05E34EC8416C3CF1B84C7877C110416C326200316D0
S123C2A0C547C7877C110606C1274FD420FCD6D7C10D270EFE1100D6D76BE2110A087E11F5
S123C2C0000BFC1108042404C60C5BD3C601877C1106C77C11000B1B9CC7876C824FD48038
S123C2E0FCEE82E6E2111DC15A270EE6E211125BD7086E828E00082DE4C6017B0267C787D3
S123C3006C804FD480FCEE80E6E2111A5BD7086E808E00032DEC1B840BB746EE82E6706B83
S123C3203026FAEC823D1BF1933BCC0AFF7B026A7B02686A86C60D6B87698810EFEE80264A
S123C3400F1A8B34CCC00E16C3193AC62B876C89EC8004240F1A8B34CCC03A16C3193AC68A
S123C36025876C89C7876C8220194FD480FC1A8BB754E382B745E600C15A270D5BD7EE821C
S123C380086E82EC82AC892DE1C6017B0267C7876C844FD480FC1A86B754E384B745E60074
S123C3A05BD7EE84086E848E00032DE61BF06F3D6CACC7876C82200ECE0000088E4E202DFF
S123C3C0FAEE82086E82EC82AC8025EC1B843D3B79000379026A7902681410CC07905B46C9
S123C3E05A4D585B40C6045B48EE86EC007C1181180B20004CD3445C5A10EFC787201A3BA6
S123C400593BE38AB745EE007E11813AE386B745EC0016C3B03008B754AC802DE2790048CA
S123C4203A3DDC5AF311815C5A0B1BF19537CC0D0A6B856A866987C6FF5B037B026A7B02F3
S123C4405A7B026879025810EFE680C1302606C6BF5B012076C1312606C6865B012076C1B0
S123C460322606C6DB5B01206CC1332606C6CF5B012062C1342606C6E65B012058C1352681
S123C48006C6ED5B01204EC1362606C6FD5B012044C1372606C6875B01203AC1382606C65D
S123C4A0FF5B012030C1392606C6EF5B012026C1412606C6F75B01201CC1422606C6FC5B81
S123C4C0012012C1432606C6B95B012076C1442606C6DE5B01206CC1452606C6F95B01205A
S123C4E062C1462606C6F15B01205879000379026A79025A1A8834CCC06016C3193AC787A6
S123C5006C834FD480FC1A88B754E383B745E600C15A270C5BD7EE83086E838E00312DE2DC
S123C520C6017B0267C7876C814FD480FC1A85B754E381B745E6005BD7EE81086E818E005C
S123C540032DE61BF06C3D1BF1DA790003CC0AFF7B025A7B02586A84C60D6B85698610EF8B
S123C5601A8734CCC09216C3193AC7876C824FD480FC1A87B754E382B745E600C15A270C7C
S123C5805BD7EE82086E828E00202DE2C6017B0267C7876C804FD480FC1A84B754E380B7F9
S123C5A045E6005BD7EE80086E808E00032DE61BF0263D1BF1E337C7876C8CC6306B815204
S123C5C06B82526B83526B84526B85526B86526B87526B88526B89C6016C8E586CF01058B8
S123C5E06CF012586CF014586CF016586CF018586CF01A586CF01C435A037A025A7A025883
S123C600C7876C8A1A81B754E38AB745E680E1002605C601876C8CEE8A086E8A8E00092DCF
S123C620E3EC8C260316C63EE680B7148300302709591A8C1AE6E6015B011BF01E3D1BF190
S123C640C7CC0D0A6B846A856986790003C6FF7B025A7B02581A8734CCC0B316C3193AC76B
S123C660876C824FD480FC1A87B754E382B745E600C15A270C5BD7EE82086E828E00282DE4
S123C680E2C6017B0267C7876C804FD480FC1A84B754E380B745E6005BD7EE80086E808E1E
S123C6A000032DE61BF0393DCC2C9C5BD17900D07900D25AD33D790262C6017B026679021F
S105C6C0653DD2
S105FFCCC2D796
S105FFD4C2AABB
S105FFE4C42231
S105FFFEC0003D
S9030000FC
