S04A00005C5C4D61635C486F6D655C446F63756D656E74735C50726F6A6563745F31395C62696E5C50726F6A6563742E61627348435331325F53657269616C5F4D6F6E69746F722E61627326
S123C000CF110006C0F268656C6C6F4D65004572726F723A20706172616D65746572206118
S123C020667465722053206D75737420626520612068657869646563696D616C206368619E
S123C040726163746572004572726F723A696E707574206D757374207374617274207769B0
S123C0607468204C2C532C206F72204D0049276D20726561647920746F20726563696576A8
S123C080652061206E657720736F6E67206F7220636F6D6D616E6421004920686F7065201F
S123C0A0796F75206C696B652074686520736F6E672069276D20706C6179696E672100458B
S123C0C072726F723A20506172616D65746572206166746572204C206D757374206265200E
S123C0E061206E756D6265722066726F6D20302D3900C602877C117F16C2C816C2BAFC110E
S123C1007F04240316C113FC117F8C0002260316C1333DC7877C11007C1102CE110E34CCA6
S123C120C00616C3433ACC0A0D7C111679111810EF20FE1BF180C7877C117D10EFFC117D2D
S123C14027FBF61106C14C2608F6110716C5D8200AC1532609F6110716C35006C2B2C14D84
S123C1601826014BC601877C110416C54EF61107C1311826008EC6CF876CF060C6146CF04F
S123C18062CE00CF6EF064C6B86CF0666EF068C69B6CF06AC6A46CF06C6EF06EC6146CF079
S123C1A0706EF072C6B86CF0746EF076C68A6CF078C69B6CF07AC6286CF044C60F6CF046B9
S123C1C0C6196CF048C6506CF04A6CF04C6CF04E586CF050C6286CF052C60F6CF054C619C6
S123C1E06CF056C6506CF0586CF05A6CF05C586CF05EC60F6CF07E19F0603519F046351658
S123C200C4FC1B84F61107C13218260098C6C3876CF022C6146CF024CE00C36EF0266CF08B
S123C220286EF02A6CF02C6EF02E6CF0306EF0326CF0346EF0366CF0386EF03AC6A46CF004
S123C2403CC6F66CF03EC6DB6CF0406EF042C62D6C80C6056C82C62D6C84C6056C86C65F0E
S123C2606C88C6056C8AC62D6C8CC6056C8EC62D6CF010C6056CF012C65F6CF014C6056CF1
S123C280F016C6326CF0186CF01A6CF01C6CF01E586CF020C6116CF07C19F022351982350D
S123C2A016C4FC1B84C7877C110416C54E200316C48CC7877C117D06C13DCC2C9C5BD179DF
S123C2C000D07900D25AD33D790262C6017B02667902653D4FD420FCD6D7C10D270EFE1133
S123C2E000D6D76BE21106087E11000BFC117F042404C60C5BD3C601877C117DC77C110023
S123C3000B1B9CC7876C824FD480FCEE82E6E21119C15A270EE6E2110E5BD7086E828E002B
S123C320082DE4C6017B0267C7876C804FD480FCEE80E6E211165BD7086E808E00032DEC2D
S123C3401B840BB746EE82E6706B3026FAEC823D1BF19537CC0D0A6B856A866987C6FF5B5B
S123C360037B026A7B025A7B026879025810EFE680C1302606C6BF5B012076C1312606C663
S123C380865B012076C1322606C6DB5B01206CC1332606C6CF5B012062C1342606C6E65BBE
S123C3A0012058C1352606C6ED5B01204EC1362606C6FD5B012044C1372606C6875B0120CE
S123C3C03AC1382606C6FF5B012030C1392606C6EF5B012026C1412606C6F75B01201CC1C8
S123C3E0422606C6FC5B012012C1432606C6B95B012076C1442606C6DE5B01206CC14526F1
S123C40006C6F95B012062C1462606C6F15B01205879000379026A79025A1A8834CCC00E11
S123C42016C3433AC7876C834FD480FC1A88B754E383B745E600C15A270C5BD7EE83086E6A
S123C440838E002E2DE2C6017B0267C7876C814FD480FC1A85B754E381B745E6005BD7EEF5
S123C46081086E818E00032DE61BF06C3D6CACC7876C82200ECE0000088E4E202DFAEE82FD
S123C480086E82EC82AC8025EC1B843D1BF19579026A79026879000379026A79025ACC0DA1
S123C4A00A6B846A85698610EF1A8734CCC04716C3433AC7876C824FD480FC1A87B754E33A
S123C4C082B745E600C15A270C5BD7EE82086E828E00242DE2C6017B0267C7876C804FD443
S123C4E080FC1A84B754E380B745E6005BD7EE80086E808E00032DE61BF06B3D3B1410CCB6
S123C50007905B465A4D585B40C6045B48EE86EC007C1181180B20004CD3445C5A10EFC748
S123C52087201A3B593BE38AB745EE007E11813AE386B745EC0016C46D3008B754AC802D92
S123C540E27900483A3DDC5AF311815C5A0B1BF1933BCC0AFF7B026A7B02686A86C60D6B98
S123C56087698810EFEE80260F1A8B34CCC06D16C3433AC62B876C89EC8004240F1A8B348C
S123C580CCC09916C3433AC625876C89C7876C8220194FD480FC1A8BB754E382B745E600AA
S123C5A0C15A270D5BD7EE82086E82EC82AC892DE1C6017B0267C7876C844FD480FC1A86B5
S123C5C0B754E384B745E6005BD7EE84086E848E00032DE61BF06F3D6BAD1BF178C7876CB4
S123C5E08FC6306B80526B81526B82526B83526B84526B85526B86526B87526B88C6016C88
S123C600F011586CF013586CF015586CF017586CF019586CF01B586CF01D586CF01F435ADD
S123C620037A026A790268C60A6BF021C60D6BF02269F02310EFC7876C8DB774E38DB74535
S123C640E6F088E1002605C601876C8FEE8D086E8D8E00092DE4EC8F26521AF02434CCC01C
S123C660BF16C3433AC7876C8B4FD480FC1AF024B754E38BB745E600C15A270C5BD7EE8B3B
S123C680086E8B8E00282DE1C6017B0267C7876C894FD480FC1AF021B754E389B745E600C0
S123C6A05BD7EE89086E898E00032DE5E6F088B7148300306CF0892709591A8F1AE6E60151
S109C6C05B011BF08B3D41
S105FFCCC3016B
S105FFD4C2D491
S105FFE4C5460C
S105FFFEC0003D
S9030000FC
